:020000040800F2
:10000000200A002045010008ED0E0008B70E000888
:10001000E90E0008D90900089F1C00080000000034
:10002000000000000000000000000000B9150008FA
:10003000AD0A000800000000A1140008CD16000859
:100040005F0100085F0100085F0100085F01000810
:100050005F0100085F010008B10A0008210B0008D9
:10006000910B00085F0100085F0100085F010008B4
:100070005F0100085F0100085F0100085F010008E0
:100080005F0100085F0100085F0100085F010008D0
:100090005F0100085F0100085F0100085F010008C0
:1000A0005F010008311700085F0100085F010008C8
:1000B000F51700085F0100085F0100085F010008F4
:1000C0005F0100085F0100085F0100085F01000890
:1000D0005F010008151A00089D1A00085F0100085A
:1000E0005F0100085F0100085F0100085F01000870
:1000F0005F0100085F0100085F0100085F01000860
:100100005F0100085F0100085F0100085F0100084F
:100110005F0100085F0100085F0100085F0100083F
:100120005F0100085F0100085F0100085F0100082F
:10013000DFF80CD000F03EFC00480047F526000830
:10014000200A00200648804706480047FEE7FEE7F1
:10015000FEE7FEE7FEE7FEE7FEE7FEE7FEE7FEE777
:10016000D116000831010008F0B480EA0102D40F72
:100170004200B2EB410F02D20246084611464A0045
:1001800042D0C30DDDB2C1F3C752AD1A202D35DA0E
:10019000C1F3160141F4000204B15242C5F1200638
:1001A00002FA06F12A411044B3EBD05F23D0C4B168
:1001B000012DA0EBC35009DCF0BC4FF0004202EA75
:1001C000C352DBB200F5000000F051BB400000F16B
:1001D000807000EBC350A0F1807040EAD1704900FC
:1001E00009E0490841EAC071A0EBC35000F50000E6
:1001F000400800EBC350F0BC00F030BB614201226C
:1002000002EB4101001BF6E7F0BC704781F00041B2
:10021000AAE780F00040A7E780EA010210B502F0EB
:100220000043400022D04A001FD0010E01EB1261B2
:10023000C0F35600C2F3560240F4000042F400023C
:10024000A0FB022000047F39140400D0401C50EAB7
:10025000124001D44000491EC2B20C0604EBD0107B
:10026000401C4008802A02D003E0002010BD20F08E
:100270000100002900DA0020184310BD30B480EAE4
:10028000010202F0004530F0004221F0004013D09E
:1002900090B1C30DD40DC2F31601C0F31600E41AD9
:1002A00041F4000140F400027D34914201D3641C0A
:1002B00000E04900002C02DA30BC002070474FF407
:1002C00000000023914201D3891A034340084FEAFA
:1002D0004101F7D151B1914202D14FF0004105E007
:1002E00002D24FF0010101E06FF0010103EBC450B5
:1002F000284430BC00F0B2BA2DE9FE4F804681EAB6
:100300000300C00F0C46009021F0004123F000458F
:10031000B8EB0200A94105D24046214690461C4652
:100320000B46024623F00040104347D0270DC7F389
:100330000A00C3F30A510290401A019040286BDA78
:10034000C3F3130040F4801B0098924620B10023B1
:10035000D2EB030A63EB0B0B01985946C0F1400244
:10036000504600F04AFA06460D4650465946019A54
:1003700000F062FA10EB08006141002487EA115294
:1003800084EAE7731A4340D0009A62B3019A012AC3
:100390004FEA075215DC001B61EB02014FF00042EF
:1003A00002EA0752CDE90042001C41F580113246B5
:1003B0002B4600F099FA03B0BDE8F08F4046214685
:1003C000F9E7001B61EB0201001C41F580130018E6
:1003D0005B412018A2F5001747EB030140EAD570F6
:1003E000B6196D4111E06D084FEA360645EAC07551
:1003F0004FEA0752001B61EB0201001C41F580111E
:1004000049084FEA30000019514132462B4603B0EB
:10041000BDE8F04F00F059BA0098012240000023D7
:10042000D0EB020263EBE073009821464FEAE074E0
:10043000B8EB000061EB0401E9E783F000435BE700
:1004400081F0004158E72DE9FE4F81EA030404F0F2
:10045000004421F0004100944FF0000B23F00043D2
:1004600050EA01045ED052EA03045BD0C3F30A549D
:10047000C1F30A552C44A4F2F3340194A0FB0254B6
:10048000C1F3130141F48011C3F3130343F4801348
:1004900001FB024400FB034E840A970A44EA81549C
:1004A00047EA8357A4FB076802958D0A05FB078579
:1004B0004FEA932C04FB0C542705029D4FEA065883
:1004C00047EA1637B5EB08056EEB070C870E920E60
:1004D00047EA811742EA8312A7FB0201B6EB0B0140
:1004E00064EB00042B0D43EA0C335E1844EB1C5004
:1004F000DA465146E7FB0201C5F313044FEA0B331A
:1005000043EA14534FEA0432019C43EA0603A4F180
:100510000C040294009CCDE900B400F0E5F903B0AE
:10052000BDE8F08F00200146F9E72DE9F04D81EAA2
:10053000030404F0004B21F0004514464FF0000A7C
:1005400023F0004150EA050220D054EA01021DD0F8
:10055000C5F30A570246C5F31303C1F31300C1F3F1
:100560000A5640F4801543F48013A7EB0608101BCD
:10057000D64608F2FD3873EB050002D308F10108F6
:1005800001E092185B41B8F1000F03DA0020014648
:10059000BDE8F08D00204FF48011064684460EE041
:1005A000171B73EB050705D3121B63EB050306430B
:1005B0004CEA010C49084FEA300092185B4150EABE
:1005C0000107EDD152EA030012D082EA040083EA67
:1005D0000501084305D0101BAB4106D201220023C0
:1005E00006E000224FF0004302E06FF001025310DA
:1005F0001AEB06004CEB085110EB0A0041EB0B0123
:10060000BDE8F04D00F061B996230022114600F0DC
:100610002EB90EB540F2334102910021CDE900110F
:100620000A460B4600F060F903B000BD20F0004020
:10063000C10DC0F3160040F400007F2901DA00204C
:100640007047962903DCC1F19601C840704796397E
:1006500088407047C1F30A5210B5C1F3130140F24C
:10066000FF3341F480119A4201DA002010BD40F2BC
:1006700033439A42A2F2334203DC524200F0CCF8F8
:1006800010BD904010BD00F0004230F000400AD094
:10069000C10D01F56071C0F3160042EA0151C208B4
:1006A00040071143704700200146704730B5041ED3
:1006B00071F1000404DB4FF00044404264EB01019F
:1006C000141E73F1000405DB1C464FF00043524238
:1006D00063EB04038B4208BF824230BD30B5041E79
:1006E00071F1000404DB4FF00044404264EB01016F
:1006F000141E73F1000405DB1C464FF00043524208
:1007000063EB0403994208BF904230BD01F00043FF
:1007100030B421F0004150EA010206D00A0DA2F5E2
:100720006072C1F31301002A02DC30BC0020704764
:10073000440F44EAC104C100E01830BC00EBC250D1
:1007400000F08CB8002801DBC0F10040002901DB7B
:10075000C1F1004181427047002801DBC0F1004037
:10076000002901DBC1F100418842704730B50B46DA
:10077000014600202022012409E021FA02F59D42D1
:1007800005D303FA02F5491B04FA02F52844151EA5
:10079000A2F10102F1DC30BD2DE9F05F0546002039
:1007A00092469B4688460646814640241BE02846E2
:1007B00041464746224600F02FF853465A46C01A93
:1007C000914110D311461846224600F016F82D1A12
:1007D00067EB01084F4622460120002100F00DF88A
:1007E00017EB00094E41201EA4F10104DFDC48464E
:1007F00031462A464346BDE8F09F202A04DB203AD2
:1008000000FA02F1002070479140C2F1200320FA63
:1008100003F3194390407047202A04DB203A21FA61
:1008200002F00021704721FA02F3D040C2F1200209
:100830009140084319467047202A06DBCB17203A1F
:1008400041FA02F043EAE07306E041FA02F3D040D5
:10085000C2F1200291400843194670470029A8BF01
:100860007047401C490008BF20F00100704710B4D9
:10087000B0FA80FC00FA0CF050EA010404BF10BC8E
:10088000704749B1CCF1200421FA04F411FA0CF1BB
:1008900018BF012121430843A3EB0C01CB1D4FEAF4
:1008A00000614FEA102042BF002010BC704700EBEF
:1008B000C35010440029A4BF10BC7047401C49001D
:1008C00008BF20F0010010BC704710B5141E73F172
:1008D000000408DA401C41F1000192185B411A4300
:1008E00001D120F0010010BD2DE9F04D92469B464C
:1008F00011B1B1FA81F202E0B0FA80F220329046F2
:10090000FFF77BFF04460F4640EA0A0041EA0B016D
:1009100053465A46084313D0114653EA010019D0F2
:10092000C8F140025046FFF777FF05460E46504695
:1009300059464246FFF761FF084305D0012004E015
:1009400020463946BDE8F08D0020054346EAE076B2
:100950002C4337430A986305E40AA0EB0800002201
:10096000FD0A44EA47540A3002D500200146E9E76F
:10097000010510196941DDE9084500196941BDE823
:10098000F04DA2E7C1F30A52C1F3130140F2FF3365
:1009900041F480119A4202DA00200146704740F289
:1009A00033439A42A2F2334202DC5242FFF734BF91
:1009B000FFF723BF064C074D06E0E06840F0010357
:1009C00094E8070098471034AC42F6D3FFF7B4FB25
:1009D000985C0008B85C000800BFFEE770B50246EE
:1009E000182901DA012070BD022304E0D05C204404
:1009F00084B2581CC3B2481E9842F7DCE5B2105CC2
:100A0000A8423FD190780004D67840EA06201679B3
:100A100030431E4E306050790004967940EA06203B
:100A2000D67930431A4E3060107A0004567A40EA84
:100A30000620967A3043174E3060D07A0004167B39
:100A400040EA0620567B3043134E3060907B000412
:100A5000D67B40EA0620167C3043104E3060507C36
:100A60000004967C40EA0620D67C30430C4E306071
:100A7000107D0C4E3070907D567D40EA06200A4E67
:100A8000308001E00120AEE70020ACE7000000204C
:100A9000040000200C0000200800002010000020AE
:100AA00014000020180000201A00002070470000E9
:100AB0002DE9F041012000F0A1F8012822D10A20FF
:100AC00001F07CFD0121104800F0EAF9B8B90F48A7
:100AD0000068C0430E49C1F890010E480068FFF756
:100AE000D2FD06460C4A0D4BFFF706FC0446FFF705
:100AF0000DFE084908604FF4FA7001F05FFD012017
:100B000000F076F8BDE8F08100100140900122422B
:100B10000000224228000020B81E85EB51B89E3FFD
:100B20002DE9F041022000F069F8012822D10A20C5
:100B300001F044FD0221104800F0B2F9B8B90F48A5
:100B40000068C0430E49C1F894010E480068FFF7E1
:100B50009AFD06460C4A0D4BFFF76FFC0446FFF763
:100B6000D5FD084908604FF4FA7001F027FD022016
:100B700000F03EF8BDE8F0810010014094012242EF
:100B80000000224228000020B81E85EB51B89E3F8D
:100B900010B5042000F032F801281FD10A2001F01E
:100BA0000DFD04210E4800F07BF9A0B90D48006846
:100BB000C0430D49C1F890010846D0F89401C043E4
:100BC0000849091D08604FF07D50084908604FF43E
:100BD000FA7001F0F3FC042000F00AF810BD0000E8
:100BE0000010014090012242000022422800002013
:100BF00001490860704700001404014001460020CC
:100C00000022074B1B6803EA0102054B14331B68E3
:100C10000B4013B10AB1012000E000207047000032
:100C200000040140002123498279002A3AD00A4673
:100C3000126803689A430B461A600A1D126803681B
:100C40009A430B1D1A60027911440A6803681A431B
:100C50000A60184A0832126803689A43154B083331
:100C60001A601A1D126803689A43124B0C331A60FB
:100C70004279102A0ED11A1F126803681A430D4BCD
:100C800008331A601A1D126803681A43094B0C33A3
:100C90001A600DE00749427911440A6803681A4353
:100CA0000A6005E0027911440A6803689A430A6001
:100CB000704700000004014030B500228B071C0F74
:100CC0000F2303FA04F20B4B8C1053F82430934398
:100CD000084C8D1044F8253023468C1053F82430EE
:100CE0008C07240F00FA04F42343024C8D1044F8BF
:100CF000253030BD080001402DE9F04102460025B5
:100D00000026002000230024002791F803C00CF0E7
:100D10000F0591F803C00CF0100CBCF1000F03D0CC
:100D200091F802C04CEA050591F800C0BCF1000F33
:100D300031D0146800202BE04FF0010C0CFA00F3C6
:100D4000B1F800C00CEA03069E4220D183004FF0A8
:100D50000F0C0CFA03F7BC4305FA03FC4CEA04043D
:100D600091F803C0BCF1280F06D14FF0010C0CFA2A
:100D700000FCC2F814C00AE091F803C0BCF1480FAF
:100D800005D14FF0010C0CFA00FCC2F810C0401C59
:100D90000828D1D31460B1F800C0BCF1FF0F34DDD6
:100DA000546800202EE000F1080C4FF0010808FA0A
:100DB0000CF3B1F800C00CEA03069E4221D1830077
:100DC0004FF00F0C0CFA03F7BC4305FA03FC4CEA96
:100DD000040491F803C0BCF1280F05D100F1080C00
:100DE00008FA0CF8C2F8148091F803C0BCF1480F5F
:100DF00007D100F1080C4FF0010808FA0CF8C2F80E
:100E00001080401C0828CED35460BDE8F08100005B
:100E1000F0B50A46002300240021002500F000461A
:100E2000B6F1004F02D11D4EF16901E01B4E716811
:100E3000C0F3034583B200F44016B6F5401F08D155
:100E400021F07061154E766826F07066134F7E6053
:100E500012E000F48016B6F5801F06D1032606FACC
:100E600005F4A14341F0706106E0460D360103FA36
:100E700006F6B14341F0706122B1460D360103FA26
:100E800006F6314300F00046B6F1004F02D1034EA2
:100E9000F16101E0014E7160F0BD00000000014011
:100EA0000246002093680B400BB1012000E00020B7
:100EB00070470161704700BFFEE7000008B50121DF
:100EC000102000F0FFFA3020ADF8000010208DF85F
:100ED000030003208DF8020069460248FFF70CFF6B
:100EE00008BD00000010014000BFFEE77047000091
:100EF00070B5002100230F22C47804B3154C246878
:100F000004F4E064C4F5E064210AC1F10403CA40BA
:100F1000447804FA03F184781440214309010E4C0B
:100F20000678A155047804F01F050124AC4005782B
:100F30006D11AD0005F1E025C5F8004109E0047828
:100F400004F01F050124AC40044D0678761145F8E5
:100F5000264070BD0CED00E000E400E080E100E020
:100F600002490143024A1160704700000000FA057F
:100F70000CED00E030B500240CE0002506E0002078
:100F8000074901EBC5010855681CC5B2802DF6DB89
:100F9000601CC4B2082CF0DB00F0F2F830BD000099
:100FA00058010020F0B5144600267F2801DC3F29B7
:100FB00000DDF0BD0B46CF1701EB5777FF10C7F1EF
:100FC0000707FAB2CF1701EB5777FF10A1EBC7075E
:100FD000FDB2C5F107070123BB40DEB24CB10A4B9D
:100FE00003EBC0039B5C3343074F07EBC007BB54C5
:100FF00008E0054B03EBC0039B5CB343024F07EBD8
:10100000C007BB5400BFD4E75801002008B5012138
:10101000102000F057FA4FF47070ADF80000102067
:101020008DF8030003208DF8020069464F48FFF752
:1010300063FE4FF420714D48FFF73BFF4FF4004033
:10104000ADF8000069464A48FFF756FE0320ADF8A8
:10105000000069464548FFF74FFE03214348FFF76C
:1010600028FF4FF40040ADF8000069464148FFF703
:1010700043FE4FF400413F48FFF71BFF01203E496C
:1010800008603E49C1F8A40100203B49091D0860E1
:10109000642001F093FA01203849C1F8A001002131
:1010A000AE2000F0CDF90021D52000F0C9F90021D3
:1010B000502000F0C5F90021A82000F0C1F900215E
:1010C0003F2000F0BDF90021D32000F0B9F9002144
:1010D000084600F0B5F90021402000F0B1F90021E8
:1010E0008D2000F0ADF90021142000F0A9F90021B5
:1010F000202000F0A5F90021022000F0A1F9002134
:10110000A12000F09DF90021C02000F099F90021F4
:10111000DA2000F095F90021122000F091F9002169
:10112000812000F08DF90021EF2000F089F90021E5
:10113000D92000F085F90021F12000F081F900218B
:10114000DB2000F07DF90021302000F079F900214A
:10115000A42000F075F90021A62000F071F900210B
:10116000AF2000F06DF9FFF705FF08BD001001404A
:10117000000C0140002001409C012242000022425C
:1011800030B500241CE004F1B001C8B2002100F029
:1011900057F90021084600F053F90021102000F013
:1011A0004FF9002508E0084901EBC501085D012160
:1011B00000F046F9681CC5B2802DF4DB601CC4B297
:1011C000082CE0DB30BD0000580100202DE9F84F6D
:1011D00080460F4616461C46BA462046E31704EBE7
:1011E0005373DB1021464FEAE47C04EB5C7C4FEA4E
:1011F000EC0CA4EBCC0CBCF1000F02D04FF0010CB6
:1012000001E04FF0000C6344224604EBD27C4FEA2D
:101210006C0C03FB0CF303F0FF0BA6F12000C6B22D
:1012200000254EE00C2C07D106EB4600274901EBC8
:101230008000405D009013E0102C05D1244800EBA5
:101240000610405D00900BE0182C07D106EBC6009D
:10125000204901EB8000405D009001E0BDE8F88F7F
:101260004FF0000927E0009800F0800028B13946CF
:1012700040460A9AFFF796FE09E00A9808B901204D
:1012800000E00020024639464046FFF78BFE0098FA
:101290004006000E0090781CC7B2A7EB0A00A042DF
:1012A00005D1574608F1010000F0FF0806E009F1FA
:1012B000010000F0FF09B9F1080FD4DB00BF681C82
:1012C000C5B25D45AEDB00BFC8E70000982D000841
:1012D0000C320008FC3700082DE9FC4F06460D468D
:1012E00017461C4600952046E21704EB5272D210B6
:1012F0002146E31704EB5373DB10A4EBC3030BB1DC
:10130000012300E000231A44624302F0FF0B0C2C7F
:1013100005D107EB4700224901EBC0090CE0102C76
:1013200003D1204800EB471906E0182C04D107EB45
:10133000C7001D4901EBC0094FF000082CE019F867
:1013400008A0002001901FE00AF0800028B1E9B257
:10135000F0B20122FFF726FE04E0E9B2F0B200226B
:10136000FFF720FE4FEA4A604FEA106A681C85B218
:101370000098281AA04203D1009D701C86B206E096
:101380000198401CC0B2019001980828DCDB00BF26
:1013900008F1010000F0FF08D845D0DBBDE8FC8F64
:1013A0003851000898510008185200082DE9FF4FE5
:1013B00081B0074691461E460E9D4FF0000A00245C
:1013C00039E0301B401EC1B20A2001F075FBB9FBA9
:1013D000F0F00A21B0FBF1F201FB1208BAF1000FA4
:1013E00016D1701EA04213DDB8F1000F0ED10120FE
:1013F000AB4605EBDB71491001FB04710090C8B2EC
:101400002B4620220299FFF7E1FE12E04FF0010A7D
:101410000120AB4605EBDB71491001FB0471009024
:10142000C8B208F13001CAB22B460299FFF7CEFECE
:1014300000BF601CC4B2B442C3DB05B0BDE8F08F8E
:1014400010B5144B19600023134CC4F89C310022D2
:1014500015E00023114C236000F0800323B1012329
:101460000C4C0C3C236003E000230A4C0C3C236032
:1014700001230A4C23604306180E531CDAB2082AD3
:10148000E7DB0123034C083C2360034CC4F8A43180
:1014900010BD0000A401224200002242BC81214272
:1014A0007047000029B1064AD2690243044BDA6151
:1014B00004E0034AD2698243014BDA6170470000BD
:1014C0000010024029B1064A92690243044B9A6116
:1014D00004E0034A92698243014B9A61704700001D
:1014E0000010024030B500210022002400232D4DC1
:1014F0006D6805F00C0121B1042905D0082923D11C
:1015000005E0294D056022E0274D05601FE0254DCF
:101510006D6805F47012234D6D6805F48034022562
:1015200005EB92421CB9214D554305600BE01D4D62
:101530006D6805F400351DB11C4D5543056002E092
:10154000194D5543056002E0174D056000BF00BF0F
:10155000144D6D6805F0F0010909154D6B5C0568C7
:10156000DD4045600F4D6D6805F4E061090A104DDE
:101570006B5C4568DD4085600A4D6D6805F460511F
:10158000C90A0B4D6B5C4568DD40C560054D6D6853
:1015900005F44041890B074D6B5CC568B5FBF3F55D
:1015A000056130BD0010024000127A0000093D00C4
:1015B0003300002043000020704710B500F002F80F
:1015C00010BD00000CB50020019000903348006869
:1015D00040F480303149086000BF3048006800F4B2
:1015E000003000900198401C0190009818B90198B3
:1015F000B0F5A06FF1D12948006800F4003010B1B7
:101600000120009001E0002000900098012843D1C3
:101610002348006840F0100021490860084600682F
:1016200020F0030008600846006840F002000860EF
:101630001A484068194948600846406848600846AA
:10164000406840F4806048600846406820F47C10A0
:1016500048600846406840F4E81048600846006862
:1016600040F08070086000BF0C48006800F0007017
:101670000028F9D00948406820F003000749486075
:101680000846406840F00200486000BF03484068D8
:1016900000F00C000828F9D10CBD00000010024039
:1016A00000200240042808D14FF0E021096941F0F0
:1016B00004014FF0E022116107E04FF0E0210969D9
:1016C00021F004014FF0E0221161704770470000E3
:1016D00010B51348006840F0010011490860084641
:1016E0004068104908400E494860084600680E49A5
:1016F00008400B4908600846006820F48020086014
:101700000846406820F4FE0048604FF41F008860DF
:10171000FFF753FF4FF000600449086010BD000060
:10172000001002400000FFF8FFFFF6FE08ED00E0A9
:101730002DE9F047284800784FF4167148432749AF
:101740000968B1FBF0F0451E2846FEF75DFF044630
:101750002046FEF798FF07460022214BFEF7E5FEE4
:101760000546FEF7D3FF814601211E4800F087F8A9
:1017700080B32046FEF75AFF85B22946194800F08B
:10178000F2F819490A880988491C174B198017492A
:1017900051F82200FEF738FF074649461448006812
:1017A000FEF73AFD80463946FEF736FD0646FEF75F
:1017B0003DFF85B229460B4800F0D7F80A4800885B
:1017C000B0F5167F02D100200749088001210548A5
:1017D00000F037F8BDE8F087200000207C000020F2
:1017E0000040AF40002C01402C000020385300087E
:1017F0002800002010B50121880700F040F818B13A
:101800000121880700F01DF810BD21B1028842F0C7
:101810008002028004E002884FF67F731A40028043
:1018200070470A884B881A438B881A43CB881A431F
:101830000B891A434B891A438B891A43A0F8442019
:101840007047CA430282704721B1028842F0010208
:10185000028004E002884FF6FE731A40028070474F
:1018600031B1B0F8442042F40042A0F8442005E031
:10187000B0F84420C2F30E02A0F84420704730B5FF
:101880000246002000230024158A05EA01039589F9
:1018900005EA010413B10CB1012000E0002030BDC5
:1018A0001AB183890B43838102E083898B4383814F
:1018B0007047000070B5002400220023058C4FF60D
:1018C000FF6635400584028C8388848B4FF68F75C4
:1018D0002C404FF6FC752C400D882C434FF6FF55DD
:1018E0002A400D894FF6FF7606EA05252A434D88E2
:1018F00006EA05252A43154DA84202D0144DA842F8
:101900001DD14FF2FF752A404D894FF6FF7606EA4A
:1019100005252A434FF6FF352A408D8806EA05251E
:101920002A434EF6FF752B404DF6FF752B408D89EF
:1019300006EA05152B43CD8906EA05152B4383805E
:101940008483CD888587028470BD0000002C01400F
:10195000003401400A460021818B4FF6F77319408D
:1019600011438183704781857047818770470000EC
:10197000002202881D4B98420ED01D4B98420BD07E
:10198000B0F1804F08D01B4B984205D01A4B9842BB
:1019900002D01A4B984204D14FF68F731A404B88ED
:1019A0001A43174B984207D0164B984204D04FF673
:1019B000FF431A40CB881A4302808B8883850B88AB
:1019C00003850A4B98420BD0094B984208D00E4B26
:1019D000984205D00D4B984202D00D4B984201D150
:1019E0000B7A03860123838270470000002C01409C
:1019F000003401400004004000080040000C00409A
:101A0000001000400014004000400140004401402C
:101A10000048014010B540F225511D4800F07EF805
:101A200010B31B4800F036F9C4B21A48008800F41D
:101A30000040C8B91748008800F4804060B10A2C03
:101A400003D000201349088020E01248008840F4A9
:101A500000401049088019E00D2C06D10D4800887F
:101A600040F480400B49088010E00A480088C0F329
:101A70000D0009490C5407480088401C054908809E
:101A800008460088C72801DD0020088010BD00003E
:101A900000380140500000205805002070B540F289
:101AA0002441154800F03AF860B113480588001D3C
:101AB0000588124801881248FEF790FF00200F4960
:101AC000088018E040F225510B4800F027F890B14B
:101AD000094800F0DFF8C4B20948084909884454AD
:101AE00006480088401C0549088008460088C72829
:101AF00001DD0020088070BD004400401C00002073
:101B00009000002021B1828942F40052828104E0D9
:101B100082894DF6FF731A408281704770B5024684
:101B2000002400230025002040F66A16B14200D1AF
:101B300000BFC1F3421501F01F03012606FA03F3AB
:101B4000012D02D19689334006E0022D02D1168A7A
:101B5000334001E0968A33400C12012606FA04F461
:101B60001688344013B10CB1012000E0002070BD94
:101B7000F0B50346002400260025002040F66A1731
:101B8000B94200D100BF1846C1F3421401F01F064C
:101B9000012707FA06F5012C01D10C3004E0022CD4
:101BA00001D1103000E014301AB107682F430760EC
:101BB00002E00768AF430760F0BD00002DE9F04781
:101BC00086B005460E460024A24600BFA146002767
:101BD000B08900B100BF2F462C8A4CF6FF7004403C
:101BE000F08804432C82AC894EF6F3100440B08890
:101BF00031890843718908430443AC81AC8A4FF6AC
:101C0000FF400440B0890443AC8201A8FFF76AFC9E
:101C10001F48874202D1DDF810A001E0DDF80CA0DA
:101C2000A88900F4004040B10AEBCA0000EB0A109A
:101C300031684900B0FBF1F807E00AEBCA0000EB9D
:101C40000A1031688900B0FBF1F86420B8FBF0F0AD
:101C500004012009642101FB1089A88900F40040D7
:101C600040B1322000EBC900B0FBF1F000F00700FA
:101C7000044308E0322000EB09106421B0FBF1F0CE
:101C800000F00F0004432C8106B0BDE8F08700008F
:101C90000038014001468888C0F30800704700BF43
:101CA000FEE700000FB4054B10B503A9044A0298E3
:101CB00000F0CAF810BC5DF814FB0000092600080B
:101CC0004C00002002E008C8121F08C1002AFAD107
:101CD00070477047002001E001C1121F002AFBD1AC
:101CE000704700002DE9FF5FDDE90220010DDDF8FE
:101CF00038B0024318D044F61050A1F2FF314143EE
:101D00000D140F98012820D0A5EB0B00401C5FEAB2
:101D1000000A4FF00004474EDFF81C91A0465046E1
:101D200016D5CAF1000728E00F98012443A2012824
:101D300008D0002100980F9BC0E90021C0E90243B0
:101D4000BDE8FF9F6FEA0B01F4E7CBF10000DEE78F
:101D5000074612E0F80707D0224633464046494678
:101D6000FEF771FB804689462246334610461946E7
:101D7000FEF769FB04460E467F10002FEAD1DDE92D
:101D80000201BAF1000F42464B4602DAFEF75BFB56
:101D900001E0FEF7CAFB04460E460022284BFEF780
:101DA0009DFC03D84FF0FF30014607E00022254B91
:101DB00020463146FEF7A0FAFEF7E4FD102409E0C4
:101DC000002C0ADB0A220023FEF7E6FC019B3032DE
:101DD0001A55641E50EA0102F2D1641C019AC4F142
:101DE000110314440F9A012A03D0012208430DD194
:101DF0000AE0084304D000204FF0110B0F9080E759
:101E0000A3EB0B056D1E0DE05B4504DD4FF00002FA
:101E100005F1010504E003DA4FF00002A5F1010528
:101E2000002AECD000980F99C0E90231C0E90045C2
:101E300086E70000000024400000F03F3000000072
:101E40000000F0430000E03F2DE9FF4F95B09B46B6
:101E50008946064600250FE2252877D1002427462B
:101E6000F84A0121059400E0044316F8013F203BA5
:101E700001FA03F01042F7D130782A2811D06FF020
:101E80002F033078A0F13002092A16D8059A44F0C1
:101E9000020402EB820203EB42021044761C05901E
:101EA000EFE759F8042B0592002A03DA504244F474
:101EB0000054059044F00204761C30782E2816D188
:101EC00016F8010F44F004042A280DD06FF02F02F9
:101ED0003078A0F13003092B09D807EB870302EB18
:101EE0004303C718761CF3E759F8047B761C307857
:101EF0006C280FD006DC4C2817D068280DD06A2833
:101F000014D104E0742810D07A280FD10DE044F4E5
:101F100000140AE044F4801401E044F440147278A0
:101F2000824202D104F58014761C761C3078662833
:101F30000BD013DC582877D009DC002875D0452851
:101F4000F6D04628F4D047281AD19DE118E063283E
:101F500035D0642879D0652812D195E1702873D0E6
:101F600008DC6728F1D069286FD06E280DD06F2863
:101F700006D1B5E073282CD0752875D0782874D098
:101F80005A46179990476D1C75E1C4F30250022818
:101F900009D003280DD0D9F8001004280DD00D6009
:101FA00009F1040967E1D9F80010EA17C1E9005204
:101FB000F6E7D9F800100D80F2E70D70F0E719F898
:101FC000041B8DF8001000208DF80100EA46012066
:101FD00003E059F804AB4FF0FF3061074FF0000108
:101FE00002D40DE008F101018846B9420FDA8045BC
:101FF000F8DB1AF808100029F4D108E008F1010113
:1020000088468142FADB1AF808100029F6D10598B3
:102010005B46A0EB080721463846179A00F094FA71
:10202000284400EB080507E04DE029E10DE01AF82F
:10203000010B5A4617999047B8F10108F7D25B4651
:1020400021463846179A13E142E00A220092C4F36F
:1020500002524FF0000A022A08D059F804CB032A92
:102060004FEAEC710AD00DE029E02AE009F10701FE
:1020700021F00702F2E802C1914609E00FFA8CFC58
:102080004FEAEC71042A03D14FFA8CFC4FEAEC7151
:10209000002907DA0A460021DCF1000C61EB02019D
:1020A0002D2202E0220504D52B228DF804200122E6
:1020B00003E0E20701D02022F7E7904659E00A2129
:1020C00002E010220DE010214FF0000A00910BE019
:1020D00010224FF0000A44F004040827009203E0A5
:1020E00008224FF0000A0092C4F30252022A05D0DF
:1020F00059F804CB0021032A08D009E009F10701AF
:1021000021F00702F2E802C1914605E01FFA8CFCBB
:10211000042A01D10CF0FF0C4FF00008220728D54B
:10212000702806D0009B83F0100353EA0A0305D001
:102130000EE040228DF80420012208E05CEA010252
:1021400006D030228DF804208DF80500022290463A
:10215000009B83F0080353EA0A030AD15CEA0102F8
:1021600001D1620705D530228DF804204FF0010817
:102170007F1E582804D034A003900EA802900DE0D2
:1021800036A0F9E753466046009AFEF705FB844601
:102190000398825C0298401E029002705CEA010083
:1021A000F0D1029806A9081A00F1200A600702D5AA
:1021B00024F4803400E00127574502DDA7EB0A0034
:1021C00000E0002000EB0A01009005984144401A0D
:1021D0000590E00306D45B462146179A059800F067
:1021E000B3F90544002706E001A85A46C05D1799D7
:1021F00090476D1C7F1C4745F6DBE0030CD55B4622
:102200002146179A059800F09FF9054404E0302014
:102210005A46179990476D1C0099481E0090002956
:10222000F5DC08E0029802995A460078491C0291B0
:10223000179990476D1CBAF10001AAF1010AF1DC6F
:1022400065E100000928010030313233343536377A
:1022500038396162636465660000000030313233F2
:102260003435363738394142434445460000000092
:1022700000F058F90544761C307800287FF4ECAD66
:1022800019B02846BDE8F08F620700D4062709F18F
:10229000070222F0070CFCE80223E14603F00048A5
:1022A0005FEA080C02D00FF2702C0DE05FEA045CCC
:1022B00002D50FF2682C07E05FEAC47C02D00FF26F
:1022C000602C01E0AFF2700C4FF0FF3823F00043B8
:1022D000CDF850C065280CD006DC452809D046282A
:1022E0001DD047283DD13DE0662818D067287ED113
:1022F00038E00021112F01DB112000E0781CCDE92E
:10230000000106A90EA8FFF7EDFCDDE90F010E9A0A
:1023100003910021009207F1010A04914DE04FF072
:1023200000400097CDE9011006A90EA8FFF7DAFCDE
:10233000DDE90F0203920E9B11990022DDF80CA03B
:102340000093049211B9791C00EB010AB7EB0A0063
:1023500004D4C0F1FF3007F1010A0490AAEB070092
:10236000019044E0012F00DA01270021112F01DD47
:10237000112000E03846CDE9000106A90EA8FFF7BC
:10238000B1FCDDE90F010E9A039100210491009246
:10239000BA4621070CD40399514500DA8A46BAF1AE
:1023A000010F05DD009AAAF10101515C302908D026
:1023B000B84202DA10F1040F06DA0121CDE901106A
:1023C00015E0AAF10101E9E7002805DC04990144C0
:1023D0000491AAEB000102E0411C514500DD8A4650
:1023E0000499401A401C01904FF0004002902007D1
:1023F00004D40198504501DBCDF8048000208DF80D
:102400004F0002980DF14F07B0F1004F25D02B205F
:102410000E9002984FF0020800280CDA4042029019
:102420002D200E9007E00A210298FEF79FF9303127
:10243000029007F8011DB8F10001A8F10108F2DCD3
:1024400002980028EFD1791E0E980870307800F0BD
:10245000200040F0450007F8020D12A8C01B00F153
:1024600007081498007800B1012000EB0A010198D8
:1024700001EBE07105984144401A401E0590E003CD
:1024800006D45B462146179A059800F05DF805448E
:102490001498007818B15A46179990476D1CE003BC
:1024A00024D55B462146179A059800F04DF805445F
:1024B0001CE00498002807DBDDE90301884203DD06
:1024C0000098405C179901E0179930205A469047D0
:1024D000049805F10105401C04900198401E0190EC
:1024E00004D12E205A46179990476D1CBAF100016D
:1024F000AAF1010ADDDC05E017F8010B5A4617992D
:1025000090476D1CB8F10001A8F10108F4DC5B46AE
:102510002146179A0598ABE62D0000002B0000001D
:10252000200000002DE9F041044600251E46174614
:10253000880404D405E039462020B0476D1C641E91
:10254000F9D52846BDE8F0812DE9F0410446002583
:102550001E469046C80301D5302700E02027880496
:1025600004D505E041463846B0476D1C641EF9D5D8
:102570002846BDE8F081000010B56FF00400FFF7B9
:1025800091F80A4800680A49B0FBF1F0094908705F
:102590000846007800EB4001C1EBC0104FF6FF7118
:1025A00001EAC0000449088010BD00007C00002042
:1025B00000127A00480000204A0000200146114A1B
:1025C00012884A434FF0E0235A6100229A611A466A
:1025D000126942F001021A6100BF4FF0E022106957
:1025E00000F001021AB100F48032002AF5D04FF059
:1025F000E022126922F001024FF0E0231A6100226A
:102600009A6170474A00002000BF054A128802F014
:102610004002002AF9D0C2B2014B1B1D1A8070473C
:10262000003801401FB501211020FEF74BFF0121AA
:102630000846FEF747FF48208DF80F000720ADF849
:102640000C0003208DF80E0003A92948FEF754FB67
:1026500000210220FEF730FB01210220FEF72CFBB7
:1026600002210846FEF728FB012001908DF80A00A0
:1026700000208DF808000C208DF8090001A8FEF755
:10268000D1FA0220019001A8FEF7CCFA04200190B3
:1026900001A8FEF7C7FA06208DF8000001208DF88A
:1026A000030002208DF8010000208DF8020068462A
:1026B000FEF71EFC07208DF8000001208DF80300B6
:1026C00002208DF8010001208DF802006846FEF717
:1026D0000FFC08208DF8000001208DF80300022077
:1026E0008DF801008DF802006846FEF701FC1FBD61
:1026F0000010014008B54FF4A060FEF731FCFFF771
:102700003BFF4FF4E13000F0F7FA4FF4965000F041
:102710009BFAFEF7D3FBFFF785FF00214FF41670FD
:1027200000F0D6F9FEF772FC102300221146104685
:10273000FEF7D2FD1023012200211220FEF7CCFD6E
:10274000012010233A22002100902220FEF73EFDB6
:10275000FEF716FD45E1A3480068FDF75AFF8246E3
:102760008B46A1480068FDF754FF80469F4AA04B66
:10277000FDF769FE064652465B46FDF7D6FE044667
:10278000FDF7C4FF9B4908604FF0804199480068FD
:10279000FDF7D8FF02D800209649086096480068E7
:1027A000FDF737FF04460D4694480068FDF731FFFA
:1027B00080460022924BFDF746FE064622462B46F7
:1027C000FDF7B3FE8246FDF7A1FF8E49086008467B
:1027D0000068FDF758FF04468B4A8C4BFDF766FFF7
:1027E00008D2002087490860894908608949086043
:1027F000894908604FF080417E480068FDF7ACFFD2
:1028000032D280480068FDF73EFF04467E4A7F4B87
:10281000FDF764FF28D27B48016876480068FDF721
:10282000FBFC7B4908607D480068FDF7F2FE04462A
:102830000D467B480068FDF7ECFE0646794A7A4B68
:10284000FDF701FE804622462B46FDF76EFE8246CE
:10285000FDF75CFF6F4908606D4801686D480068CE
:10286000FDF70CFD6C49086062480068FDF70BFF3E
:10287000044622460B466DA0FFF714FA6148006833
:10288000FDF701FF044622460B466DA0FFF70AFA4A
:102890005F480068FDF7F7FE044622460B466DA030
:1028A000FFF700FA5B480068FDF7EDFE044622469C
:1028B0000B466CA0FFF7F6F957480068FDF7E3FEFA
:1028C000044622460B466BA0FFF7ECF96D480078F2
:1028D00000F080006C49097888420AD06B48008873
:1028E000401C6A4908806748007800F0800066490B
:1028F0000870664800886649098801EB0040654910
:102900000860474800686449B1FBF0F0634908601B
:1029100009684FF4616201FB02F0FDF77AFE06469A
:10292000404A414BFDF701FE0446FDF793FE5B492B
:10293000086008460068FDF767FE044655480068D1
:10294000FDF762FE05462146FDF798FC54490860F4
:1029500008460068FDF797FE044622460B4651A044
:10296000FFF7A0F94FF4FA70FFF728FE00BF00BF91
:1029700020480068FDF75AFE4D49088010200223C8
:1029800000900846028800213220FEF70FFD4848DB
:102990000088FDF739FE0446164801682046FDF719
:1029A00038FC14490860434912480068FDF734FCBC
:1029B00010490860012010232E2200210090582089
:1029C000FEF704FC0B480068FDF730FE04461020BB
:1029D00003232246002100906420FEF7E7FCFEF767
:1029E000CFFBB8E604000020000000202B1BE57F91
:1029F00043AB074054000020080000200C000020DA
:102A00000000F03F580000209A9999999999B93F90
:102A1000600000205C000020640000201400002002
:102A2000100000203F355EBA490C0840B5E7D1B927
:102A3000D3D0D0A7D6B5A3BA25660D0A00000000F2
:102A4000B5E7C1F7D3D0D0A7D6B5A3BA25660D0A8E
:102A500000000000CAD3D4DAB9A6C2CAA3BA256658
:102A60000D0A0000D3D0B9A6B9A6C2CAA3BA25667A
:102A70000D0A0000B9A6C2CAD2F2CAFDA3BA2566E1
:102A80000D0A0000180000206C0000206E000020DD
:102A90001A0000207000002000CA9A3B7400002039
:102AA00068000020B5E7C4DCA3BA25660D0A000063
:102AB0007800002000007A4410B50246012000E0B2
:102AC00050430B00A1F10104E1B2F9D110BD0000A7
:102AD00030B58DB004460D465348007860435349E5
:102AE0000968B1FBF0F0401E514908800846008893
:102AF000401E322148436421B0FBF1F04D4908806B
:102B000001210420FEF7DEFC01210820FEF7DAFC9B
:102B100001210846FEF7D6FC0121C802FEF7D2FCCF
:102B200001214548FEF774F918208DF833004FF461
:102B30008060ADF8300003208DF832000CA93F48CA
:102B4000FEF7DAF80220ADF830000CA93C48FEF799
:102B5000D3F80020ADF82A00ADF8260034480088EC
:102B6000ADF82800ADF8245000208DF82C0009A9FC
:102B70003448FEF7FDFE0020ADF820006020ADF8DF
:102B800014000020ADF82200ADF81E00ADF81C00C6
:102B90000420ADF818000120ADF816002548008883
:102BA000ADF81A0005A92748FEF784FE4FF48040CF
:102BB000ADF810000020ADF80C004FF40050ADF857
:102BC0000E005420ADF80A000020ADF80800ADF862
:102BD0000600ADF8040001A91A48FEF722FE012202
:102BE00011461848FEF75CFE19208DF80000012000
:102BF0008DF8030002208DF801008DF80200684670
:102C0000FEF776F908210F48FEF7A4FE01210D48D2
:102C1000FEF7FBFD01210B48FEF716FE01210948D6
:102C2000FEF71EFE0DB030BD200000207C0000200D
:102C30002E00002030000020400016000008014057
:102C4000000C0140002C014010B586B00446012163
:102C50000420FEF737FC01214804FEF723FC042082
:102C6000ADF8140003208DF8160018208DF8170019
:102C700005A91F48FEF740F80820ADF8140004200D
:102C80008DF8170005A91A48FEF736F826208DF8AA
:102C9000000002208DF801008DF8020001208DF85F
:102CA00003006846FEF724F901940020ADF80800FF
:102CB000ADF80A00ADF80C00ADF810000C20ADF82E
:102CC0000E0001A90B48FEF779FF012240F22551C1
:102CD0000848FEF74DFF012240F224410548FEF767
:102CE00047FF01210348FEF70DFF06B010BD0000AD
:102CF000000801400044004010B586B004460121A0
:102D000044F20400FEF7DEFB4FF40070ADF814004F
:102D100003208DF8160018208DF8170005A91C480F
:102D2000FDF7EAFF4FF48060ADF8140004208DF841
:102D3000170005A91648FDF7DFFF25208DF80000D4
:102D400003208DF801008DF8020001208DF80300AA
:102D50006846FEF7CDF801940020ADF80800ADF804
:102D60000A00ADF80C00ADF810000C20ADF80E0014
:102D700001A90848FEF722FF012240F2255105482B
:102D8000FEF7F6FE01210348FEF7BCFE06B010BDBB
:102D90000008014000380140000000000000000071
:102DA00000000000000000003F40000000000000A4
:102DB00000003000400030004000000009000BC05F
:102DC0003D000BC03D00090018C024407FE02240B8
:102DD00031800000180024C01B000D8032400180AB
:102DE00003801C4027401C8007400040100060000A
:102DF00000000000000000000000000000001F8034
:102E0000204040200000402020401F8000000000A3
:102E1000090006001F8006000900000004000400ED
:102E20003F8004000400000000100060000000006B
:102E3000000000000400040004000400040000007E
:102E4000000000400000000000000000002001C061
:102E500006003800400000001F8020402040204035
:102E60001F800000000010403FC000400000000034
:102E700018C021402240244018400000108020400B
:102E8000244024401B80000002000D0011003FC0C0
:102E9000014000003C802440244024402380000066
:102EA0001F80244024403440038000003000200074
:102EB00027C03800200000001B802440244024400C
:102EC0001B8000001C0022C0224022401F80000006
:102ED00000000000084000000000000000000000AA
:102EE0000460000000000000000004000A0011005F
:102EF0002080404009000900090009000900000085
:102F000000004040208011000A000400180020004A
:102F100023402400180000001F8020402740294043
:102F20001F400000004007C039000F0001C00040F2
:102F300020403FC0244024401B8000001F802040D0
:102F4000204020403080000020403FC020402040F2
:102F50001F80000020403FC024402E4030C00000B1
:102F600020403FC024402E00300000000F001080A1
:102F7000204022403380020020403FC00400040073
:102F80003FC02040204020403FC020402040000063
:102F90000060202020203FC02000200020403FC0B3
:102FA00024400B0030C0204020403FC02040004063
:102FB000004000C03FC03C0003C03C003FC00000D8
:102FC00020403FC00C4023003FC020001F80204015
:102FD000204020401F80000020403FC024402400AB
:102FE000180000001F802140214020E01FA00000A9
:102FF00020403FC02440260019C0004018C0244093
:103000002440224031800000300020403FC020405A
:103010003000000020003F80004000403F80200042
:1030200020003E0001C0070038002000380007C023
:103030003C0007C038000000204039C0060039C0FD
:10304000204000002000384007C038402000000029
:10305000304021C02640384020C000000000000061
:103060007FE0402040200000000070000C00038042
:10307000004000000000402040207FE000000000F1
:1030800000002000400020000000000000100010A0
:1030900000100010001000100000000040000000B0
:1030A00000000000000002800540054003C0004011
:1030B00020003FC004400440038000000000038063
:1030C0000440044006400000000003800440244007
:1030D0003FC0004000000380054005400340000061
:1030E000000004401FC0244024402000000002E0F3
:1030F000055005500650042020403FC00440040005
:1031000003C000400000044027C000400000000051
:1031100000100010041027E00000000020403FC015
:103120000140070004C00440204020403FC0004050
:103130000040000007C0040007C0040003C00000F6
:10314000044007C00440040003C0004000000380A6
:103150000440044003800000041007F004500440C1
:1031600003800000000003800440045007F00010BA
:10317000044007C0024004000400000000000640B4
:103180000540054004C00000000004001F8004400A
:1031900000400000040007800040044007C00040D9
:1031A0000400070004C0018006000400060001C0FE
:1031B000070001C006000000044006C0010006C070
:1031C000044000000410071004E001800600040021
:1031D0000000044005C0064004400000000000005C
:1031E00004007BE040200000000000000000FFF031
:1031F00000000000000040207BE004000000000010
:10320000400080004000200020004000000000003E
:1032100000000000000000000000000000000000AE
:1032200000001FCC000C000000000000000008009F
:10323000300060000800300060000000022003FC45
:103240001E20022003FC1E200220000000000E1899
:1032500011043FFF10840C78000000000F00108460
:103260000F3800C0077818840078000000780F84B9
:1032700010C411240E9800E40084000808006800BF
:1032800070000000000000000000000000000000CE
:10329000000007E01818200440020000000040026F
:1032A0002004181807E0000000000000024002405F
:1032B00001800FF001800240024000000080008089
:1032C00000800FF800800080008000000001000DE9
:1032D000000E000000000000000000000000008060
:1032E0000080008000800080008000800000000CD2
:1032F000000C0000000000000000000000000006BC
:10330000001800600180060018002000000007F08F
:10331000080810041004080807F000000000080462
:1033200008041FFC000400040000000000000E0C54
:1033300010141024104411840E0C000000000C180E
:1033400010041104110412880C700000000000E049
:103350000320042408241FFC0024000000001F9800
:10336000108411041104108810700000000007F090
:1033700008881104110418880070000000001C0067
:10338000100010FC13001C001000000000000E389C
:1033900011441084108411440E380000000007000E
:1033A000088C10441044088807F00000000000005A
:1033B0000000030C030C00000000000000000000EF
:1033C0000001010600000000000000000000008075
:1033D000014002200410080810040000022002200E
:1033E000022002200220022002200000000010041F
:1033F00008080410022001400080000000000E00B8
:103400001200100C106C10800F00000003E00C186C
:1034100013E4142417C4082807D000000004003C5B
:1034200003C41C40074000E4001C000410041FFCFF
:103430001104110411040E880070000003E00C1840
:1034400010041004100410081C10000010041FFCCD
:10345000100410041004080807F0000010041FFCFA
:103460001104110417C410040818000010041FFCF4
:103470001104110017C010000800000003E00C1830
:103480001004100410441C780040000010041FFCBD
:1034900010840080008010841FFC100400001004C1
:1034A00010041FFC100410040000000000030001C1
:1034B000100110011FFE10001000000010041FFC7E
:1034C000110403801464181C1004000010041FFC75
:1034D0001004000400040004000C000010041FFC91
:1034E0001F0000FC1F001FFC1004000010041FFC44
:1034F0000C04030000E010181FFC100007F008087F
:10350000100410041004080807F0000010041FFC49
:1035100010841080108010800F00000007F0081841
:1035200010241024101C080A07F2000010041FFCCD
:103530001104110011C011300E0C000400000E1C0B
:1035400011041084108410441C380000180010006E
:1035500010041FFC100410001800000010001FF8D9
:1035600010040004000410041FF8100010001E00D6
:1035700011E0001C007013801C0010001FC0103CE4
:1035800000E01F0000E0103C1FC000001004180CF9
:10359000163401C001C01634180C100410001C00B1
:1035A000130400FC13041C00100000000804101C8D
:1035B0001064108413041C041018000000000000A4
:1035C00000007FFE40024002400200000000300088
:1035D0000C0003800060001C00030000000040029B
:1035E000400240027FFE00000000000000000000DA
:1035F00020004000400040002000000000010001C9
:103600000001000100010001000100010000400074
:1036100040002000000000000000000000000098B2
:10362000012401440144014400FC000410001FFC7B
:103630000088010401040088007000000000007090
:1036400000880104010401040088000000000070EB
:1036500000880104010411081FFC0004000000F8A8
:10366000014401440144014400C800000000010479
:1036700001040FFC1104110411001800000000D611
:1036800001290129012901C90106000010041FFCBC
:10369000008401000100010400FC0004000001049A
:1036A000190419FC000400040000000000000003DD
:1036B00000010101190119FE0000000010041FFCA7
:1036C0000024004001B4010C0104000000001004BB
:1036D00010041FFC0004000400000000010401FCB1
:1036E0000104010001FC0104010000FC010401FCD3
:1036F000008401000100010400FC0004000000F847
:10370000010401040104010400F80000010101FFAB
:1037100000850104010400880070000000000070B2
:10372000008801040104010501FF000101040104F6
:1037300001FC00840104010001800000000000CCB5
:10374000012401240124012401980000000001004B
:10375000010007F80104010400000000010001F865
:10376000000400040004010801FC000401000180C1
:103770000170000C001001600180010001F0010CDB
:10378000003001C00030010C01F001000000010414
:10379000018C00740170018C0104000001010181A1
:1037A0000171000E00180160018001000000018419
:1037B000010C013401440184010C000000000000F0
:1037C0000000000001003EFC40024002000000003A
:1037D00000000000FFFF00000000000000004002A9
:1037E00040023EFC010000000000000000006000FC
:1037F0008000800040004000200020000000000009
:1038000000000000000000000000000000000000B8
:1038100000000000000000000000000000000000A8
:103820000000000000000000000000000000000F89
:1038300080380FFE380F80380000000000000000C4
:103840000000000000000000000001000006000071
:103850000C00003800003100000600000C000038A9
:1038600000003000000000000000000061800067E0
:10387000F807F9800061800061800061800061804C
:103880000067F807F9800061800000000000000078
:10389000000001C0E003E0F00630080418081FFF34
:1038A000FE040E080787F00381E00000000000001E
:1038B00001F000060C00040408060C7001F9C000B9
:1038C0000E00003BE000EC18070808040C18000389
:1038D000E00000000001E00007F003F818041C08F5
:1038E00004170807E1D003C0E00023B0003C080043
:1038F000200800001000000000000001000031005E
:10390000003200001C000000000000000000000069
:1039100000000000000000000000000000000000A7
:103920000000000000000000000000007F0001FF18
:10393000C00780F00C0018100004200002000000F6
:103940000000002000021000040C00180780F001A5
:10395000FFC0007F00000000000000000000000029
:103960000000000000000000420000660000660049
:10397000003C0000180003FFC0001800003C0000DD
:103980006600006600004200000000000800000819
:103990000000080000080000080001FFC000080047
:1039A00000080000080000080000080000000000F7
:1039B000000100003100003200001C000000000087
:1039C00000000000000000000000000000000000F7
:1039D00000000000080000080000080000080000C7
:1039E00008000008000008000008000008000008A7
:1039F0000000000000000000000000003800003857
:103A0000000038000000000000000000000000007E
:103A100000000000000000000000000000060000A0
:103A20001C000070000180000E0000380000C00083
:103A30000700001C00003000000000000000000033
:103A40007F8001FFE0038070060018040008040076
:103A50000806001803807001FFE0007F800000006E
:103A60000000000000000100080100080100080338
:103A7000FFF807FFF8000008000008000008000039
:103A80000000000000000001C03802C05804009887
:103A9000040118040218040418061C1803F818017D
:103AA000E0F800000000000000000001C0E003C0DA
:103AB000F004000804080804080806180803F418AD
:103AC00001E7F00001E0000000000000000000003D
:103AD0000300000D000011000061000081080301D7
:103AE0000807FFF80FFFF8000108000108000000B8
:103AF0000000000000E007FCD006080806100806D9
:103B00001008061008061838060FF00607C0000057
:103B100000000000000000003F8001FFE00384304F
:103B200002081804100804100804100807181003ED
:103B30000FF00007C000000000000000000003C0FC
:103B4000000700000600000600F80607F806180047
:103B500006E0000700000600000000000000000171
:103B6000E1E003F7F0063410041808041808040C08
:103B700008040C0806161803F3F001C1E000000069
:103B800000000000F80003FC3003063804020804BB
:103B900002080402080404100308F001FFC0007FBB
:103BA0000000000000000000000000000000000015
:103BB000000000007038007038007038000000000D
:103BC00000000000000000000000000000000000F5
:103BD0000000000000000000301A00301C0000004F
:103BE00000000000000000000000000000000000D5
:103BF00000000008000014000022000041000080C6
:103C000080010040020020040010080008000000AD
:103C10000000000021000021000021000021000020
:103C200021000021000021000021000021000021CE
:103C30000000000000000000000008000804001060
:103C400002002001004000808000410000220000AE
:103C5000140000080000000000000003C00004C0C1
:103C600000040000080038080F3808083808100061
:103C70000C300007E00003C000000000000000005E
:103C80003F8000FFE0038070020F1006708804C0C0
:103C900088048308047F8802C09003012000FE404E
:103CA0000000080000180001F8003E0801C20007EB
:103CB000020007E20000FE00001FC80001F800003B
:103CC0003800000804000807FFF807FFF804080898
:103CD00004080804080804080806180803F4180172
:103CE000E7F00001E0000000000000003F8001FF5D
:103CF000E0038070020018040008040008040008B3
:103D00000400100600200780C0000000040008071F
:103D1000FFF807FFF8040008040008040008040086
:103D20001802001003807001FFE0007F8000000097
:103D300004000807FFF807FFF8040808040808044F
:103D40000808040808043E080400080600180100DA
:103D50006000000004000807FFF807FFF8040808E7
:103D6000040800040800040800043E0006000006E1
:103D70000000018000000000000000003F8001FF03
:103D8000E00380700600180400080402080402081A
:103D90000203F00783F0000200000200040008079D
:103DA000FFF807FFF80408080008000008000008F2
:103DB0000000080004080807FFF807FFF8040008DF
:103DC00000000000000004000804000804000807C8
:103DD000FFF807FFF80400080400080400080000CA
:103DE00000000000000000000006000007000001C5
:103DF00004000104000104000307FFFE07FFFC04A8
:103E0000000004000004000004000807FFF807FF9A
:103E1000F8040C08001800003E0004C7800503C821
:103E20000600F80400380400180000080400080721
:103E3000FFF807FFF8040008000008000008000071
:103E400008000008000008000018000060000000E2
:103E500004000807FFF807800807FC00007FC00087
:103E600003F80007C000780007800807FFF807FF85
:103E7000F804000804000807FFF807000803C00062
:103E800000E000003800001E000007000001C00430
:103E900000F007FFF8040000000000007F8001FF31
:103EA000E0038070060018040008040008060018EB
:103EB00003003001FFE0007F8000000004000807DD
:103EC000FFF807FFF80404080404000404000404D5
:103ED00000040400060C0003F80001F000000000DC
:103EE000000000007F8001FFE0038070060088046E
:103EF00000880400C806003C03003E01FFE6007F86
:103F00008400000004000807FFF807FFF804080811
:103F1000040800040C00040F00040BC00610F0039A
:103F2000F03801E00800000800000001E0F803F0AC
:103F300030063010041808041808040C08040C0893
:103F40000206180207F00781E00000000180000669
:103F5000000004000004000004000807FFF807FF49
:103F6000F8040008040000040000060000018000BE
:103F700004000007FFE007FFF0040018000008003D
:103F8000000800000800000800000804001007FFF7
:103F9000E004000004000006000007E00007FE0047
:103FA000041FE00001F80000380001E0043E0007B3
:103FB000C00006000004000004000007E00007FF46
:103FC000C0041FF80007C007F80007FF80043FF88F
:103FD0000007C004F800070000040000000000040F
:103FE000000806001807C07805F1C8003E00001F51
:103FF000800463E80780F806001804000800000049
:1040000004000006000007800007E008047C0800A8
:104010001FF80007F800180804E008070000060071
:10402000000400000000000100080600380400F849
:104030000403E8040F08047C0805F00807C008071B
:1040400000180400600000000000000000000000F4
:10405000000000000000003FFFFE200002200002E0
:1040600020000220000220000200000000000000EA
:10407000000008000007000000C000003800000633
:10408000000001C000003000000E00000100000030
:10409000000000000000200002200002200002209A
:1040A00000022000023FFFFE0000000000000000B0
:1040B00000000000000000000000000000080000F8
:1040C0001000003000002000003000001000000848
:1040D00000000000000000000000010000010000DE
:1040E00001000001000001000001000001000001CA
:1040F00000000100000100000100000100000000BC
:10410000000000000020000020000010000010004F
:10411000000000000000000000000000000000009F
:104120000000000000F00019F8001B180022080031
:104130002608002408002410003FF8001FF80000A3
:104140000800001800000004000007FFF80FFFF04F
:10415000001818001008002008002008003018007F
:104160001FF0000FC00000000000000007C0001F8B
:10417000F0001830002008002008002008003C084B
:10418000001C1000006000000000000000000000A3
:1041900007C0001FF0003818002008002008002089
:1041A0000804101007FFF80FFFF0000010000000D7
:1041B0000000000000000007C0001FF000123000E7
:1041C0002218002208002208003208001E10000EEB
:1041D000200000000000000020000020080020084F
:1041E00001FFF803FFF80620080420080420080750
:1041F000200003000000000000000000000E000E80
:104200006E001FF30031B10020B10020B1003191E8
:10421000001F13002E1E00200E00300000000004BE
:10422000000807FFF80FFFF800100800200000202A
:1042300000002008003FF8001FF800000800000000
:1042400000000000000000200800200800200806F0
:104250003FF8063FF80000080000080000080000D2
:104260000000000000000000000000000300000348
:10427000002001002001002003063FFE063FFC0055
:10428000000000000000000000000004000807FF1C
:10429000F80FFFF8000188000300002FC00038F875
:1042A0000020380020080000080000000000000086
:1042B000000004000804000804000807FFF80FFFCE
:1042C000F8000008000008000008000000000000DE
:1042D000002008003FF8003FF80010080020000010
:1042E0003FF8003FF8001008002000003FF8003FB2
:1042F000F8000008000000002008003FF8003FF828
:10430000001008001000002000002008003FF80006
:104310001FF80000080000000000000007C0000FA8
:10432000F000183000300800200800200800300895
:10433000001830000FF00007C0000000000000006F
:104340002001003FFF003FFF001011002009002066
:1043500008002008003038001FF0000FC0000000E7
:104360000000000007C0001FF000381800200800FF
:104370002008002009001011001FFF003FFF00006F
:1043800001000000002008002008002008003FF87D
:10439000003FF80008080010080020080020000076
:1043A0003000003000000000000000000000000CA1
:1043B00078001E1800330800230800210800218817
:1043C0000021980030F0003860000000000000007C
:1043D000200000200000200000FFF003FFF8002074
:1043E0000800200800200800003000000000000045
:1043F000000000002000003FF0007FF800001800DF
:104400000008000008002010003FF8007FF00000C6
:1044100010000000000000002000003000003C0000
:10442000003F800023F0000078000070002380002F
:104430003C00003000002000002000003C00003F55
:10444000E00023F80000E0002700003E00003FE00D
:104450000021F80001E0003E000020000000000004
:104460002008002008003838003E6800278000033C
:10447000C8002CF800383800201800200800000080
:10448000000000002000003003003C01003F8300DA
:1044900023EC000070002380003C0000200000207E
:1044A0000000000000000000000000380800203874
:1044B0000020F80023E8002F88003E08003808009C
:1044C0002018000070000000000000000000000044
:1044D000000000000000000008000014001FF7FCAE
:1044E0003000062000020000000000000000000074
:1044F0000000000000000000000000000000FFFFBE
:10450000FF000000000000000000000000000000AC
:104510000000000000002000023000061FF7FC0031
:10452000140000080000000000000000000000006F
:1045300000000000000000180000600000400000C3
:1045400040000020000010000008000004000004EB
:1045500000000C0000100000000000001FF8111007
:10456000111011101110FFFE111111111111111163
:104570001FF90001000F0000000100067FF8400253
:1045800041024102410241025FFE410241024122D9
:10459000411A410240020000000000001FF8111003
:1045A000111011101110FFFE111111111111111123
:1045B0001FF90001000F000008200620407E318016
:1045C00000012202267C2A00B200627F22002A001B
:1045D000267E2301200700000000000000000000EC
:1045E00000000000000000000000000000000000CB
:1045F00000000000000000000000000000000000BB
:1046000000000000000000000000000000000000AA
:10461000000000000000000000000000000000009A
:1051300000000000000000003FC024802480248084
:10514000FFE02490249024903F9000100070000015
:1051500000107FE040104210421042105FF04210F9
:1051600042904250401000003FC0248024802480A0
:10517000FFE02490249024903F90001000700000E5
:1051800044202240001024202DC03400A5F06400EB
:1051900025E02C1026700000000000001FF8111000
:1051A000111011101110FFFE111111111111111117
:1051B0001FF90001000F0000000100067FF8400207
:1051C00041024102410241025FFE4102410241228D
:1051D000411A410240020000000000001FF81110B7
:1051E000111011101110FFFE1111111111111111D7
:1051F0001FF90001000F000008200620407E3180CA
:1052000000012202267C2A00B200627F22002A00CE
:10521000267E23012007000000000000000000009F
:105220000000000003FFC002210002210002210053
:105230000221000221000221007FFFFE0221020262
:10524000210202210202210202210202210203FFA5
:105250008202000200000600003E00000000000084
:1052600000000000000200000C0000301FFFE81FDB
:10527000FE08100008101008101008101008101078
:105280000810100817FFF817FFF810100810100882
:105290001012081011881010E81010483000081083
:1052A00000080000000000000000000000000000F6
:1052B0000000000003FFC0022100022100022100C3
:1052C0000221000221000221007FFFFE02210202D2
:1052D000210202210202210202210202210203FF15
:1052E0008202000200000600003E000000000000F4
:1052F00000000000808000C0802070FC1001FC1CB9
:1053000006020C380201C0040A0018082FF0086FCA
:105310008008A0004B20002E2FFE3C2800084000F3
:10532000084000094FFC08C804087004180004086D
:10533000003C000008000000D0070000E407000067
:10534000F90700000E0800002308000038080000DC
:105350004D08000062080000770800008C0800007B
:10536000A1080000B5080000CA080000DF0800001E
:10537000F4080000080900001D09000032090000BF
:10538000460900005B0900006F0900008409000065
:1053900098090000AD090000C1090000D50900000E
:1053A000E9090000FD090000120A0000260A0000B9
:1053B0003A0A00004D0A0000610A0000750A000068
:1053C000890A00009C0A0000B00A0000C30A00001D
:1053D000D70A0000EA0A0000FD0A0000100B0000D6
:1053E000230B0000360B0000490B00005B0B000094
:1053F0006E0B0000810B0000930B0000A50B00005A
:10540000B80B0000CA0B0000DC0B0000ED0B000025
:10541000FF0B0000110C0000220C0000340C0000F7
:10542000450C0000560C0000670C0000780C0000D2
:10543000890C0000990C0000AA0C0000BA0C0000B6
:10544000CA0C0000DA0C0000EA0C0000FA0C0000A4
:105450000A0D0000190D0000290D0000380D000094
:10546000470D0000560D0000640D0000730D000094
:10547000810D0000900D00009E0D0000AC0D00009D
:10548000B90D0000C70D0000D50D0000E20D0000B1
:10549000EF0D0000FC0D0000090E0000150E0000CD
:1054A000220E00002E0E00003A0E0000460E0000F4
:1054B000510E00005D0E0000680E0000730E00002B
:1054C0007E0E0000890E0000940E00009E0E00006B
:1054D000A80E0000B20E0000BC0E0000C60E0000B8
:1054E000CF0E0000D80E0000E10E0000EA0E000012
:1054F000F30E0000FB0E0000030F00000B0F000076
:10550000130F00001B0F0000220F0000290F0000E6
:10551000300F0000370F00003E0F0000440F000066
:105520004A0F0000500F0000560F00005B0F0000F4
:10553000610F0000660F00006B0F00006F0F00008E
:10554000740F0000780F00007C0F0000800F000037
:10555000830F0000870F00008A0F00008D0F0000EE
:10556000900F0000920F0000950F0000970F0000B1
:10557000980F00009A0F00009C0F00009D0F000084
:105580009E0F00009F0F00009F0F00009F0F000064
:10559000A00F00009F0F00009F0F00009F0F000052
:1055A0009E0F00009D0F00009C0F00009A0F00004E
:1055B000980F0000970F0000950F0000920F000059
:1055C000900F00008D0F00008A0F0000870F000071
:1055D000830F0000800F00007C0F0000780F000098
:1055E000740F00006F0F00006B0F0000660F0000CB
:1055F000610F00005B0F0000560F0000500F00000D
:105600004A0F0000440F00003E0F0000370F00005B
:10561000300F0000290F0000220F00001B0F0000B8
:10562000130F00000B0F0000030F0000FB0E000023
:10563000F30E0000EA0E0000E10E0000D80E00009C
:10564000CF0E0000C60E0000BC0E0000B20E00001F
:10565000A80E00009E0E0000940E0000890E0000AF
:105660007E0E0000730E0000680E00005D0E00004C
:10567000510E0000460E00003A0E00002E0E0000F3
:10568000220E0000150E0000090E0000FC0D0000A7
:10569000EF0D0000E20D0000D50D0000C70D000069
:1056A000B90D0000AC0D00009E0D0000900D000033
:1056B000810D0000730D0000640D0000560D000008
:1056C000470D0000380D0000290D0000190D0000E5
:1056D0000A0D0000FA0C0000EA0C0000DA0C0000D1
:1056E000CA0C0000BA0C0000AA0C0000990C0000C3
:1056F000890C0000780C0000670C0000560C0000BC
:10570000450C0000340C0000220C0000110C0000BD
:10571000FF0B0000ED0B0000DC0B0000CA0B0000CB
:10572000B80B0000A50B0000930B0000810B0000DC
:105730006E0B00005B0B0000490B0000360B0000F5
:10574000230B0000100B0000FD0A0000EA0A000015
:10575000D70A0000C30A0000B00A00009C0A00003B
:10576000890A0000750A0000610A00004D0A000065
:105770003A0A0000260A0000120A0000FD09000093
:10578000E9090000D5090000C1090000AD090000C9
:1057900098090000840900006F0900005B090000FF
:1057A00046090000320900001D0900000809000038
:1057B000F4080000DF080000CA080000B508000077
:1057C000A10800008C0800007708000062080000B3
:1057D0004D08000038080000230800000E080000F3
:1057E000F9070000E4070000D0070000BB07000035
:1057F000A6070000910700007C0700006707000073
:10580000520700003D0700002807000013070000B2
:10581000FE060000EA060000D5060000C0060000F3
:10582000AB06000097060000820600006D0600002F
:105830005906000044060000300600001B06000068
:1058400007060000F2050000DE050000CA050000A2
:10585000B6050000A20500008D05000079050000D6
:1058600065050000520500003E0500002A05000005
:105870001605000003050000EF040000DC04000032
:10588000C8040000B5040000A20400008F0400005A
:105890007C04000069040000560400004404000079
:1058A000310400001E0400000C040000FA03000094
:1058B000E8030000D5030000C3030000B2030000AA
:1058C000A00300008E0300007D0300006B030000B6
:1058D0005A030000490300003803000027030000BA
:1058E0001603000006030000F5020000E5020000B8
:1058F000D5020000C5020000B5020000A5020000AC
:105900009502000086020000760200006702000097
:1059100058020000490200003B0200002C02000077
:105920001E0200000F02000001020000F30100004F
:10593000E6010000D8010000CA010000BD0100001E
:10594000B0010000A3010000960100008A010000E0
:105950007D01000071010000650100005901000097
:105960004E01000042010000370100002C01000040
:1059700021010000160100000B01000001010000E0
:10598000F7000000ED000000E3000000D900000077
:10599000D0000000C7000000BE000000B5000000FD
:1059A000AC000000A40000009C0000009400000077
:1059B0008C000000840000007D00000076000000E4
:1059C0006F00000068000000610000005B00000044
:1059D000550000004F000000490000004400000096
:1059E0003E000000390000003400000030000000DC
:1059F0002B00000027000000230000001F00000013
:105A00001C0000001800000015000000120000003B
:105A10000F0000000D0000000A0000000800000058
:105A20000700000005000000030000000200000065
:105A30000100000000000000000000000000000065
:105A40000000000000000000000000000000000056
:105A5000010000000200000003000000050000003B
:105A600007000000080000000A0000000D00000010
:105A70000F000000120000001500000018000000D8
:105A80001C0000001F000000230000002700000091
:105A90002B0000003000000034000000390000003E
:105AA0003E00000044000000490000004F000000DC
:105AB000550000005B00000061000000680000006D
:105AC0006F000000760000007D00000084000000F0
:105AD0008C000000940000009C000000A400000066
:105AE000AC000000B5000000BE000000C7000000D0
:105AF000D0000000D9000000E3000000ED0000002D
:105B0000F7000000010100000B0100001601000079
:105B1000210100002C0100003701000042010000BB
:105B20004E010000590100006501000071010000F4
:105B30007D0100008A01000096010000A301000021
:105B4000B0010000BD010000CA010000D801000042
:105B5000E6010000F3010000010200000F02000056
:105B60001E0200002C0200003B020000490200005F
:105B70005802000067020000760200008602000062
:105B800095020000A5020000B5020000C502000059
:105B9000D5020000E5020000F50200000603000047
:105BA000160300002703000038030000490300002B
:105BB0005A0300006B0300007D0300008E03000009
:105BC000A0030000B2030000C3030000D5030000DF
:105BD000E8030000FA0300000C0400001E040000AB
:105BE0003104000044040000560400006904000071
:105BF0007C0400008F040000A2040000B504000033
:105C0000C8040000DC040000EF04000003050000ED
:105C1000160500002A0500003E05000052050000A0
:105C200065050000790500008D050000A205000053
:105C3000B6050000CA050000DE050000F205000000
:105C4000070600001B0600003006000044060000A6
:105C5000590600006D06000082060000970600004D
:105C6000AB060000C0060000D5060000EA060000F2
:105C7000FE06000013070000280700003D07000093
:105C800052070000670700007C0700009107000032
:105C9000A6070000BB070000B85C00080000002059
:105CA00090000000C41C0008485D0008900000201F
:105CB00090090000D41C0008000000000000000053
:105CC00000000000000000000000000000000000D4
:105CD0000000000000000000320000000000000092
:105CE0000000403F00000000000000000000000134
:105CF000020304010203040607080902040608005F
:105D00000000000000000000000000000000000093
:105D10000000000000000000000000000000000083
:105D20000000000000000000000000000000000073
:105D30000000000000A24A04000000000000000073
:085D4000010203040607080933
:0400000508000131BD
:00000001FF
